:020000040800F2
:100000002804002001010008E5020008750200082C
:10001000E102000859010008BF0A000800000000C2
:100020000000000000000000000000004906000879
:100030005D01000800000000650300085D0700087E
:100040001B0100081B0100081B01000871050008C6
:100050001B0100081B0100081B0100081B01000810
:100060001B0100081B0100081B0100081B01000800
:100070001B0100081B0100081B0100081B010008F0
:100080001B0100081B0100081B0100081B010008E0
:100090001B0100081B0100081B0100081B010008D0
:1000A0001B0100081B0100081B0100081B010008C0
:1000B0001B0100081B0100081B0100081B010008B0
:1000C0001B0100081B0100081B0100081B010008A0
:1000D0001B010008FD0700081B0100081B010008A8
:1000E0001B0100081B0100081B010008DFF80CD0F1
:1000F00000F018F800480047B50D0008280400205B
:100100000648804706480047FEE7FEE7FEE7FEE7B1
:10011000FEE7FEE7FEE7FEE7FEE7FEE79D070008D5
:10012000ED000008064C074D06E0E06840F00103D2
:1001300094E8070098471034AC42F6D3FFF7DAFF93
:10014000D0100008F010000810B5012000F02CF9C4
:10015000002000F029F910BD00BFFEE770472DE92F
:10016000F04102460025002600200023002400273D
:1001700091F803C00CF00F0591F803C00CF0100CBF
:10018000BCF1000F03D091F802C04CEA050591F8CC
:1001900000C0BCF1000F31D0146800202BE04FF0FC
:1001A000010C0CFA00F3B1F800C00CEA03069E4201
:1001B00020D183004FF00F0C0CFA03F7BC4305FA73
:1001C00003FC4CEA040491F803C0BCF1280F06D1EB
:1001D0004FF0010C0CFA00FCC2F814C00AE091F8D0
:1001E00003C0BCF1480F05D14FF0010C0CFA00FC24
:1001F000C2F810C0401C0828D1D31460B1F800C068
:10020000BCF1FF0F34DD546800202EE000F1080C33
:100210004FF0010808FA0CF3B1F800C00CEA03062D
:100220009E4221D183004FF00F0C0CFA03F7BC4320
:1002300005FA03FC4CEA040491F803C0BCF1280F52
:1002400005D100F1080C08FA0CF8C2F8148091F8F6
:1002500003C0BCF1480F07D100F1080C4FF00108B2
:1002600008FA0CF8C2F81080401C0828CED354605D
:10027000BDE8F08100BFFEE708B501210C2000F0C9
:1002800083F8FE20ADF8000010208DF80300032055
:100290008DF8020069461048FFF761FF48F2E3005D
:1002A000ADF8000010208DF8030003208DF8020047
:1002B00069460A48FFF753FF4FF46060ADF800004D
:1002C00028208DF8030003208DF8020069460348BA
:1002D000FFF745FF08BD000000080140000C014089
:1002E00000BFFEE77047000070B5002100230F2219
:1002F000C47804B3154C246804F4E064C4F5E064E5
:10030000210AC1F10403CA40447804FA03F1847855
:100310001440214309010E4C0678A155047804F0DD
:100320001F050124AC4005786D11AD0005F1E025F5
:10033000C5F8004109E0047804F01F050124AC4031
:10034000044D0678761145F8264070BD0CED00E0AE
:1003500000E400E080E100E001490862704700002D
:1003600000000E427047000029B1064AD2690243DC
:10037000044BDA6104E0034AD2698243014BDA613B
:10038000704700000010024029B1064A92690243FA
:10039000044B9A6104E0034A92698243014B9A61DB
:1003A00070470000001002400149086070470000DB
:1003B0004004424230B500210022002400232D4D8C
:1003C0006D6805F00C0121B1042905D0082923D15D
:1003D00005E0294D056022E0274D05601FE0254D11
:1003E0006D6805F47012234D6D6805F480340225A4
:1003F00005EB92421CB9214D554305600BE01D4DA4
:100400006D6805F400351DB11C4D5543056002E0D3
:10041000194D5543056002E0174D056000BF00BF50
:10042000144D6D6805F0F0010909154D6B5C056808
:10043000DD4045600F4D6D6805F4E061090A104D1F
:100440006B5C4568DD4085600A4D6D6805F4605160
:10045000C90A0B4D6B5C4568DD40C560054D6D6894
:1004600005F44041890B074D6B5CC568B5FBF3F59E
:10047000056130BD0010024000127A0000093D0005
:10048000060000201600002010B5014600220023BF
:1004900000204A11012A02D1094C236806E0022AF1
:1004A00002D1074C236A01E0054C636A01F01F0288
:1004B000012494401C400CB1012000E0002010BD3C
:1004C0000010024000210B4A11700A4A203A82F8BB
:1004D0002010012802D0042808D103E00121054A98
:1004E000117004E00521034A117000E000BF00BF55
:1004F000704700002010024001490860704700006A
:100500003C0442420249096A0143014A11627047B0
:1005100000100240024909888143014A1180704756
:10052000042800400348008840F01000014908807A
:100530007047000004280040034800884FF6EF7120
:100540000840014908807047042800400146002007
:10055000064A12880A40D0B2044A121F12880A4082
:1005600012B108B1012000E00020704704280040CB
:1005700010B50120FFF7EAFF90B10B480078401C4E
:1005800009490870084600F06BFD0848006808B982
:10059000012000E00020054908600120FFF7BAFFB4
:1005A00000F036F810BD000000000020B401224227
:1005B00029B1064A12880243044B1A8004E0034A18
:1005C00012888243014B1A807047000000280040C7
:1005D00008B503208DF8000000208DF801008DF88B
:1005E000020001208DF803006846FFF77DFE08BD7C
:1005F00000B50246FFF796FFC2F3034003490880A7
:10060000091D0A80FFF798FF00BD00000828004080
:1006100000BF0348008800F020000028F9D0704790
:1006200004280040074800884FF6F7710840054944
:10063000088000BF0348008800F008000028F9D0B7
:100640007047000004280040704710B500F002F821
:1006500010BD00000CB500200190009033480068E8
:1006600040F480303149086000BF3048006800F431
:10067000003000900198401C0190009818B9019832
:10068000B0F5A06FF1D12948006800F4003010B136
:100690000120009001E0002000900098012843D143
:1006A0002348006840F010002149086008460068AF
:1006B00020F0030008600846006840F0020008606F
:1006C0001A4840681949486008464068486008462A
:1006D000406840F4806048600846406820F47C1020
:1006E00048600846406840F4E810486008460068E2
:1006F00040F08070086000BF0C48006800F0007097
:100700000028F9D00948406820F0030007494860F4
:100710000846406840F00200486000BF0348406857
:1007200000F00C000828F9D10CBD000000100240B8
:1007300000200240042808D14FF0E021096941F06F
:1007400004014FF0E022116107E04FF0E021096958
:1007500021F004014FF0E022116170477047000062
:1007600010B504466FF00400FFF7E4FFE11704EB57
:100770005171C1F3C701074A11701046007800EBB0
:100780004001C1EBC0104FF6FF7101EAC000024901
:10079000088010BD1A0000201C00002010B513486E
:1007A000006840F00100114908600846406810499F
:1007B00008400E494860084600680E4908400B4949
:1007C00008600846006820F48020086008464068F9
:1007D00020F4FE0048604FF41F008860FFF735FFEB
:1007E0004FF000600449086010BD00000010024096
:1007F0000000FFF8FFFFF6FE08ED00E010B540F244
:1008000025510C4800F096F870B10A4800F04EF9F6
:10081000C4B22146074800F04EF900BF4021054808
:1008200000F07BF80128F9D14021024800F060F87F
:1008300010BD00000038014010B586B0044601210B
:100840000420FFF7A1FD01218803FFF79DFD012191
:100850000846FFF799FD4FF40070ADF8140003202F
:100860008DF8160018208DF8170005A91E48FFF70F
:1008700076FC4FF48060ADF8140004208DF817006A
:1008800005A91948FFF76BFC01940020ADF808009A
:10089000ADF80A00ADF80C00ADF810000C20ADF872
:1008A0000E0001A9114800F095F801210F4800F051
:1008B00028F840210D4800F01BF8012240F2255194
:1008C0000A4800F061F825208DF8000003208DF81B
:1008D00001008DF8020001208DF803006846FFF743
:1008E00003FD06B010BD00000008014000380140C3
:1008F00001F40072B2F5007F00D100BFCA4302804C
:10090000704721B1828942F40052828104E08289D9
:100910004DF6FF731A408281704702460020B1F500
:10092000007F00D100BF13880B400BB1012000E015
:100930000020704770B502460024002300250020E7
:1009400040F66A16B14200D100BFC1F3421501F072
:100950001F03012606FA03F3012D02D196893340C5
:1009600006E0022D02D1168A334001E0968A334018
:100970000C12012606FA04F41688344013B10CB1A7
:10098000012000E0002070BDF0B5034600240026E1
:100990000025002040F66A17B94200D100BF184672
:1009A000C1F3421401F01F06012707FA06F5012CD6
:1009B00001D10C3004E0022C01D1103000E01430E1
:1009C0001AB107682F43076002E00768AF4307606A
:1009D000F0BD00002DE9F04786B005460E46002424
:1009E000A24600BFA1460027B08900B100BF2F4634
:1009F0002C8A4CF6FF700440F08804432C82AC89AA
:100A00004EF6F3100440B0883189084371890843D9
:100A10000443AC81AC8A4FF6FF400440B0890443E4
:100A2000AC8201A8FFF7C6FC1F48874202D1DDF85F
:100A300010A001E0DDF80CA0A88900F4004040B14E
:100A40000AEBCA0000EB0A1031684900B0FBF1F86C
:100A500007E00AEBCA0000EB0A1031688900B0FB1E
:100A6000F1F86420B8FBF0F004012009642101FBD7
:100A70001089A88900F4004040B1322000EBC90081
:100A8000B0FBF1F000F00700044308E0322000EB77
:100A900009106421B0FBF1F000F00F0004432C8139
:100AA00006B0BDE8F08700000038014001468888A4
:100AB000C0F308007047C1F308028280704700BF8E
:100AC000FEE70000014A024900F013B8450C000897
:100AD0002000002002E008C8121F08C1002AFAD135
:100AE00070477047002001E001C1121F002AFBD1AE
:100AF00070472DE9F04116460F460446002503E0F5
:100B00003946B047641C6D1C20780028F8D128466F
:100B1000BDE8F0810EB515480068012806D101E056
:100B200001200290114800680028F9D10F48001DEB
:100B30000068012807D101E0012001900B48001D49
:100B400000680028F8D1094808300068012807D15A
:100B500001E0012000900548083000680028F8D125
:100B60006A4601A902A800F003F80EBD24812142C3
:100B700010B50378012B0CD11E4B9B785B1C1D4CD0
:100B8000A3700023037023469B780A2B01D1002316
:100B9000A3700B78012B0CD1164BDB785B1C154C2A
:100BA000E37000230B702346DB78062B01D1002372
:100BB000E3701378012B1CD10E4B1B795B1C0D4C81
:100BC00023710023137023461B79042B06D123467F
:100BD0005B79022B02D1002323716371054B1B79D2
:100BE0000A2B06D10023034C237123465B795B1C3F
:100BF000637110BD000000200146114A12884A436B
:100C00004FF0E0235A6100229A611A46126942F0BD
:100C100001021A6100BF4FF0E022106900F00102EA
:100C20001AB100F48032002AF5D04FF0E0221269A8
:100C300022F001024FF0E0231A6100229A6170470E
:100C40001C00002070B504460D46E1B20548FFF7D0
:100C500032FF00BF80210348FFF75FFE0028F9D074
:100C6000204670BD00380140062817D2DFE800F0AA
:100C700003172C41566B01213E4A116000213E4A68
:100C8000C2F894113B4A121D11603A4A183A116099
:100C9000384A24321160384AC2F8841167E00021D2
:100CA000344A11600121344AC2F894110021314ABA
:100CB000121D11602F4A183A11602E4A2432116019
:100CC0002D4AC2F8841152E000212A4A11602A4AB2
:100CD000C2F894110121274A121D11600021254AF2
:100CE000183A1160234A24321160234AC2F8841151
:100CF0003DE000211F4A11601F4AC2F894111D4AAD
:100D0000121D116001211B4A183A11600021194A75
:100D100024321160184AC2F8841128E00021154AD3
:100D20001160154AC2F89411124A121D1160114A3D
:100D3000183A116001210F4A2432116000210E4A35
:100D4000C2F8841113E000210A4A11600A4AC2F86D
:100D50009411084A121D1160064A183A1160054A9A
:100D6000243211600121044AC2F8841100BF00BF7F
:100D700070470000988121420080214208B501217E
:100D80001020FFF701FB4FF40050ADF800001020D9
:100D90008DF8030003208DF8020069460348FFF731
:100DA000DEF900200249086008BD00000010014083
:100DB000B4012242FFF7F2FC4820FFF7D1FC4FF4C8
:100DC000E130FFF739FD0A20FFF716FFFFF7D6FFE6
:100DD0000520FFF711FFFFF74FFA0A20FFF70CFF7E
:100DE00000F006F90A20FFF707FF10E000240AE0F0
:100DF0002046FFF739FF0649085D00F00BF8032095
:100E0000FFF7FAFE641C062CF2DBFFF783FEEDE72A
:100E1000000000200A287DD2DFE800F005182C42EF
:100E2000566B8397AABC00216F4A11606F4AC2F8C3
:100E300088116D4A08321160121D1160121D116077
:100E4000121D11600121121D1160CAE00121664AC4
:100E500011600021654AC2F88811634A08321160A6
:100E60000121121D1160121D1160121D1160121D51
:100E70001160B6E000215C4A11605C4AC2F888113A
:100E80000121594A083211600021121D1160121D02
:100E900011600121121D11600021121D1160A0E0DE
:100EA0000021514A1160514AC2F888114E4A083255
:100EB0001160121D11600121121D1160121D1160BF
:100EC0000021121D11608CE00121474A11600021B0
:100ED000464AC2F88811444A083211600121121DA5
:100EE0001160121D11600021121D1160121D116090
:100EF00077E000213C4A116001213C4AC2F8881188
:100F00000021394A08321160121D11600121121DA1
:100F1000116000E052E00021121D1160121D1160ED
:100F20005FE00021304A11600121304AC2F8881187
:100F300000212D4A08321160121D1160121D11602E
:100F4000121D1160121D11604BE00021264A116034
:100F5000264AC2F88811244A083211600121121D64
:100F60001160121D1160121D1160121D116038E018
:100F700000211D4A11601D4AC2F888111A4A083220
:100F80001160121D1160121D1160121D1160121DE1
:100F9000116026E00021144A1160144AC2F8881139
:100FA000114A08321160121D11600121121D1160D9
:100FB0000021121D1160121D116012E001210A4A68
:100FC00011600A4AC2F88811074A08321160121DDE
:100FD0001160121D1160121D11600021121D11609F
:100FE00000BF00BF70470000840121420000214281
:100FF00010B501214FF0C050FFF7B6F90120FFF7FF
:10100000ABF9FFF7A1F80120FFF75CFA6420FFF7C6
:10101000F3FD4120FFF738FAB8B94FF48070FFF7BD
:1010200071FA0120FFF768FAFFF7FCFAFFF7F0FA10
:1010300001210846FFF7BCFAFFF7EAFA47F6FF700E
:10104000FFF7D6FAFFF7E4FA02E003A0FFF73AFD54
:10105000FFF7BEFA10BD00006572726F72000000EB
:1010600001780A2933D14178491C417001780A2955
:101070002BD14178062928D18178491C817081784B
:101080000A2920D1C178491CC17081780A2918D158
:10109000C178062915D10179491C017101790A2904
:1010A00004D14179491C4171002101710179042960
:1010B00005D14179022902D100210171417100213C
:1010C000C1700021817000214170002101707047C2
:1010D000F01000080000002024000000D40A0008DE
:1010E000141100082400002004040000E40A000891
:1010F00000000000000000000000010203040102E3
:1011000003040607080902040608000000000000A6
:0411100000000000DB
:04000005080000ED02
:00000001FF
